{"abi":[{"type":"constructor","inputs":[],"stateMutability":"nonpayable"},{"type":"function","name":"approve","inputs":[{"name":"to","type":"address","internalType":"address"},{"name":"tokenId","type":"uint256","internalType":"uint256"}],"outputs":[],"stateMutability":"nonpayable"},{"type":"function","name":"balanceOf","inputs":[{"name":"owner","type":"address","internalType":"address"}],"outputs":[{"name":"","type":"uint256","internalType":"uint256"}],"stateMutability":"view"},{"type":"function","name":"currentTokenId","inputs":[],"outputs":[{"name":"","type":"uint256","internalType":"uint256"}],"stateMutability":"view"},{"type":"function","name":"getApproved","inputs":[{"name":"tokenId","type":"uint256","internalType":"uint256"}],"outputs":[{"name":"","type":"address","internalType":"address"}],"stateMutability":"view"},{"type":"function","name":"isApprovedForAll","inputs":[{"name":"owner","type":"address","internalType":"address"},{"name":"operator","type":"address","internalType":"address"}],"outputs":[{"name":"","type":"bool","internalType":"bool"}],"stateMutability":"view"},{"type":"function","name":"mint","inputs":[{"name":"to","type":"address","internalType":"address"},{"name":"uri","type":"string","internalType":"string"}],"outputs":[{"name":"","type":"uint256","internalType":"uint256"}],"stateMutability":"nonpayable"},{"type":"function","name":"name","inputs":[],"outputs":[{"name":"","type":"string","internalType":"string"}],"stateMutability":"view"},{"type":"function","name":"owner","inputs":[],"outputs":[{"name":"","type":"address","internalType":"address"}],"stateMutability":"view"},{"type":"function","name":"ownerOf","inputs":[{"name":"tokenId","type":"uint256","internalType":"uint256"}],"outputs":[{"name":"","type":"address","internalType":"address"}],"stateMutability":"view"},{"type":"function","name":"renounceOwnership","inputs":[],"outputs":[],"stateMutability":"nonpayable"},{"type":"function","name":"safeTransferFrom","inputs":[{"name":"from","type":"address","internalType":"address"},{"name":"to","type":"address","internalType":"address"},{"name":"tokenId","type":"uint256","internalType":"uint256"}],"outputs":[],"stateMutability":"nonpayable"},{"type":"function","name":"safeTransferFrom","inputs":[{"name":"from","type":"address","internalType":"address"},{"name":"to","type":"address","internalType":"address"},{"name":"tokenId","type":"uint256","internalType":"uint256"},{"name":"data","type":"bytes","internalType":"bytes"}],"outputs":[],"stateMutability":"nonpayable"},{"type":"function","name":"setApprovalForAll","inputs":[{"name":"operator","type":"address","internalType":"address"},{"name":"approved","type":"bool","internalType":"bool"}],"outputs":[],"stateMutability":"nonpayable"},{"type":"function","name":"supportsInterface","inputs":[{"name":"interfaceId","type":"bytes4","internalType":"bytes4"}],"outputs":[{"name":"","type":"bool","internalType":"bool"}],"stateMutability":"view"},{"type":"function","name":"symbol","inputs":[],"outputs":[{"name":"","type":"string","internalType":"string"}],"stateMutability":"view"},{"type":"function","name":"tokenURI","inputs":[{"name":"tokenId","type":"uint256","internalType":"uint256"}],"outputs":[{"name":"","type":"string","internalType":"string"}],"stateMutability":"view"},{"type":"function","name":"transferFrom","inputs":[{"name":"from","type":"address","internalType":"address"},{"name":"to","type":"address","internalType":"address"},{"name":"tokenId","type":"uint256","internalType":"uint256"}],"outputs":[],"stateMutability":"nonpayable"},{"type":"function","name":"transferOwnership","inputs":[{"name":"newOwner","type":"address","internalType":"address"}],"outputs":[],"stateMutability":"nonpayable"},{"type":"event","name":"Approval","inputs":[{"name":"owner","type":"address","indexed":true,"internalType":"address"},{"name":"approved","type":"address","indexed":true,"internalType":"address"},{"name":"tokenId","type":"uint256","indexed":true,"internalType":"uint256"}],"anonymous":false},{"type":"event","name":"ApprovalForAll","inputs":[{"name":"owner","type":"address","indexed":true,"internalType":"address"},{"name":"operator","type":"address","indexed":true,"internalType":"address"},{"name":"approved","type":"bool","indexed":false,"internalType":"bool"}],"anonymous":false},{"type":"event","name":"BatchMetadataUpdate","inputs":[{"name":"_fromTokenId","type":"uint256","indexed":false,"internalType":"uint256"},{"name":"_toTokenId","type":"uint256","indexed":false,"internalType":"uint256"}],"anonymous":false},{"type":"event","name":"MetadataUpdate","inputs":[{"name":"_tokenId","type":"uint256","indexed":false,"internalType":"uint256"}],"anonymous":false},{"type":"event","name":"OwnershipTransferred","inputs":[{"name":"previousOwner","type":"address","indexed":true,"internalType":"address"},{"name":"newOwner","type":"address","indexed":true,"internalType":"address"}],"anonymous":false},{"type":"event","name":"Transfer","inputs":[{"name":"from","type":"address","indexed":true,"internalType":"address"},{"name":"to","type":"address","indexed":true,"internalType":"address"},{"name":"tokenId","type":"uint256","indexed":true,"internalType":"uint256"}],"anonymous":false},{"type":"error","name":"ERC721IncorrectOwner","inputs":[{"name":"sender","type":"address","internalType":"address"},{"name":"tokenId","type":"uint256","internalType":"uint256"},{"name":"owner","type":"address","internalType":"address"}]},{"type":"error","name":"ERC721InsufficientApproval","inputs":[{"name":"operator","type":"address","internalType":"address"},{"name":"tokenId","type":"uint256","internalType":"uint256"}]},{"type":"error","name":"ERC721InvalidApprover","inputs":[{"name":"approver","type":"address","internalType":"address"}]},{"type":"error","name":"ERC721InvalidOperator","inputs":[{"name":"operator","type":"address","internalType":"address"}]},{"type":"error","name":"ERC721InvalidOwner","inputs":[{"name":"owner","type":"address","internalType":"address"}]},{"type":"error","name":"ERC721InvalidReceiver","inputs":[{"name":"receiver","type":"address","internalType":"address"}]},{"type":"error","name":"ERC721InvalidSender","inputs":[{"name":"sender","type":"address","internalType":"address"}]},{"type":"error","name":"ERC721NonexistentToken","inputs":[{"name":"tokenId","type":"uint256","internalType":"uint256"}]},{"type":"error","name":"OwnableInvalidOwner","inputs":[{"name":"owner","type":"address","internalType":"address"}]},{"type":"error","name":"OwnableUnauthorizedAccount","inputs":[{"name":"account","type":"address","internalType":"address"}]}],"bytecode":{"object":"0x60806040523461036d57604080519081016001600160401b038111828210176102835760409081526007825266135bd8dad3919560ca1b602083015280519081016001600160401b038111828210176102835760405260048152631353919560e21b602082015281516001600160401b038111610283575f54600181811c91168015610363575b602082101461026557601f8111610301575b50602092601f82116001146102a257928192935f92610297575b50508160011b915f199060031b1c1916175f555b80516001600160401b03811161028357600154600181811c91168015610279575b602082101461026557601f8111610202575b50602091601f82116001146101a2579181925f92610197575b50508160011b915f199060031b1c1916176001555b33156101845760078054336001600160a01b03198216811790925560405191906001600160a01b03167f8be0079c531659141344cd1fd0a4f28419497f9722a3daafe3b4186f6b6457e05f80a35f600855610f8690816103728239f35b631e4fbdf760e01b5f525f60045260245ffd5b015190505f80610112565b601f1982169260015f52805f20915f5b8581106101ea575083600195106101d2575b505050811b01600155610127565b01515f1960f88460031b161c191690555f80806101c4565b919260206001819286850151815501940192016101b2565b60015f527fb10e2d527612073b26eecdfd717e6a320cf44b4afac2b0732d9fcbe2b7fa0cf6601f830160051c8101916020841061025b575b601f0160051c01905b81811061025057506100f9565b5f8155600101610243565b909150819061023a565b634e487b7160e01b5f52602260045260245ffd5b90607f16906100e7565b634e487b7160e01b5f52604160045260245ffd5b015190505f806100b2565b601f198216935f8052805f20915f5b8681106102e957508360019596106102d1575b505050811b015f556100c6565b01515f1960f88460031b161c191690555f80806102c4565b919260206001819286850151815501940192016102b1565b5f80527f290decd9548b62a8d60345a988386fc84ba6bc95484008f6362f93160ef3e563601f830160051c81019160208410610359575b601f0160051c01905b81811061034e5750610098565b5f8155600101610341565b9091508190610338565b90607f1690610086565b5f80fdfe6080806040526004361015610012575f80fd5b5f3560e01c9081629a9b7b14610a135750806301ffc9a71461098b57806306fdde03146108e9578063081812fc146108ad578063095ea7b3146107c357806323b872dd146107ac57806342842e0e146107835780636352211e1461075357806370a0823114610702578063715018a6146106a75780638da5cb5b1461067f57806395d89b41146105b5578063a22cb4651461051a578063b88d4fde146104b8578063c87b56dd14610481578063d0def521146101c2578063e985e9c51461016b5763f2fde38b146100e1575f80fd5b34610167576020366003190112610167576100fa610a51565b610102610f29565b6001600160a01b0316801561015457600780546001600160a01b0319811683179091556001600160a01b03167f8be0079c531659141344cd1fd0a4f28419497f9722a3daafe3b4186f6b6457e05f80a3005b631e4fbdf760e01b5f525f60045260245ffd5b5f80fd5b3461016757604036600319011261016757610184610a51565b61018c610a67565b9060018060a01b03165f52600560205260405f209060018060a01b03165f52602052602060ff60405f2054166040519015158152f35b34610167576040366003190112610167576101db610a51565b60243567ffffffffffffffff811161016757366023820112156101675761020c903690602481600401359101610af5565b90610215610f29565b600854906001600160a01b0316801561046e575f828152600260205260409020546001600160a01b03168015159183908361043b575b805f52600360205260405f2060018154019055815f52600260205260405f20816bffffffffffffffffffffffff60a01b825416179055827fddf252ad1be2c89b69c2b068fc378daa952ba7f163c4a11628f55a4df523b3ef5f80a45061042857805f52600660205260405f20825167ffffffffffffffff8111610414576102d28254610b2b565b601f81116103cf575b506020601f821160011461036e57819293945f92610363575b50508160011b915f199060031b1c19161790555b7ff8e1a15aba9398e019f0b49df1a4fde98ee17ae345cb5f6b5e2c27f5033e8ce76020604051838152a1600854905f19821461034f57600160209201600855604051908152f35b634e487b7160e01b5f52601160045260245ffd5b0151905084806102f4565b601f19821690835f52805f20915f5b8181106103b75750958360019596971061039f575b505050811b019055610308565b01515f1960f88460031b161c19169055848080610392565b9192602060018192868b01518155019401920161037d565b825f5260205f20601f830160051c8101916020841061040a575b601f0160051c01905b8181106103ff57506102db565b5f81556001016103f2565b90915081906103e9565b634e487b7160e01b5f52604160045260245ffd5b6339e3563760e11b5f525f60045260245ffd5b5f82815260046020526040902080546001600160a01b0319169055825f52600360205260405f205f19815401905561024b565b633250574960e11b5f525f60045260245ffd5b34610167576020366003190112610167576104b46104a0600435610e30565b604051918291602083526020830190610a2d565b0390f35b34610167576080366003190112610167576104d1610a51565b6104d9610a67565b6064359167ffffffffffffffff831161016757366023840112156101675761050e610518933690602481600401359101610af5565b9160443591610cf0565b005b3461016757604036600319011261016757610533610a51565b60243590811515809203610167576001600160a01b03169081156105a257335f52600560205260405f20825f5260205260405f2060ff1981541660ff83161790556040519081527f17307eab39ab6107e8899845ad3d59bd9653f200f220920489ca2b5937696c3160203392a3005b50630b61174360e31b5f5260045260245ffd5b34610167575f366003190112610167576040515f6001546105d581610b2b565b808452906001811690811561065b57506001146105fd575b6104b4836104a081850382610ab7565b91905060015f527fb10e2d527612073b26eecdfd717e6a320cf44b4afac2b0732d9fcbe2b7fa0cf6915f905b808210610641575090915081016020016104a06105ed565b919260018160209254838588010152019101909291610629565b60ff191660208086019190915291151560051b840190910191506104a090506105ed565b34610167575f366003190112610167576007546040516001600160a01b039091168152602090f35b34610167575f366003190112610167576106bf610f29565b600780546001600160a01b031981169091555f906001600160a01b03167f8be0079c531659141344cd1fd0a4f28419497f9722a3daafe3b4186f6b6457e08280a3005b34610167576020366003190112610167576001600160a01b03610723610a51565b168015610740575f526003602052602060405f2054604051908152f35b6322718ad960e21b5f525f60045260245ffd5b34610167576020366003190112610167576020610771600435610ef5565b6040516001600160a01b039091168152f35b346101675761051861079436610a7d565b90604051926107a4602085610ab7565b5f8452610cf0565b34610167576105186107bd36610a7d565b91610b63565b34610167576040366003190112610167576107dc610a51565b6024356107e881610ef5565b3315158061089a575b8061086d575b61085a5781906001600160a01b0384811691167f8c5be1e5ebec7d5bd14f71427d1e84f3dd0314c0f7b2291e5b200ac8c7c3b9255f80a45f90815260046020526040902080546001600160a01b0319166001600160a01b03909216919091179055005b63a9fbf51f60e01b5f523360045260245ffd5b506001600160a01b0381165f90815260056020908152604080832033845290915290205460ff16156107f7565b506001600160a01b0381163314156107f1565b34610167576020366003190112610167576004356108ca81610ef5565b505f526004602052602060018060a01b0360405f205416604051908152f35b34610167575f366003190112610167576040515f5f5461090881610b2b565b808452906001811690811561065b575060011461092f576104b4836104a081850382610ab7565b5f8080527f290decd9548b62a8d60345a988386fc84ba6bc95484008f6362f93160ef3e563939250905b808210610971575090915081016020016104a06105ed565b919260018160209254838588010152019101909291610959565b346101675760203660031901126101675760043563ffffffff60e01b811680910361016757602090632483248360e11b81149081156109d0575b506040519015158152f35b6380ac58cd60e01b811491508115610a02575b81156109f1575b50826109c5565b6301ffc9a760e01b149050826109ea565b635b5e139f60e01b811491506109e3565b34610167575f366003190112610167576020906008548152f35b805180835260209291819084018484015e5f828201840152601f01601f1916010190565b600435906001600160a01b038216820361016757565b602435906001600160a01b038216820361016757565b6060906003190112610167576004356001600160a01b038116810361016757906024356001600160a01b0381168103610167579060443590565b90601f8019910116810190811067ffffffffffffffff82111761041457604052565b67ffffffffffffffff811161041457601f01601f191660200190565b929192610b0182610ad9565b91610b0f6040519384610ab7565b829481845281830111610167578281602093845f960137010152565b90600182811c92168015610b59575b6020831014610b4557565b634e487b7160e01b5f52602260045260245ffd5b91607f1691610b3a565b6001600160a01b039091169190821561046e575f828152600260205260409020546001600160a01b031692829033151580610c5b575b5084610c28575b805f52600360205260405f2060018154019055815f52600260205260405f20816bffffffffffffffffffffffff60a01b825416179055847fddf252ad1be2c89b69c2b068fc378daa952ba7f163c4a11628f55a4df523b3ef5f80a46001600160a01b0316808303610c1057505050565b6364283d7b60e01b5f5260045260245260445260645ffd5b5f82815260046020526040902080546001600160a01b0319169055845f52600360205260405f205f198154019055610ba0565b90915080610c9f575b15610c715782905f610b99565b8284610c8957637e27328960e01b5f5260045260245ffd5b63177e802f60e01b5f523360045260245260445ffd5b503384148015610cce575b80610c6457505f838152600460205260409020546001600160a01b03163314610c64565b505f84815260056020908152604080832033845290915290205460ff16610caa565b9291610cfd818386610b63565b813b610d0a575b50505050565b604051630a85bd0160e11b81523360048201526001600160a01b0394851660248201526044810191909152608060648201529216919060209082908190610d55906084830190610a2d565b03815f865af15f9181610deb575b50610db857503d15610db1573d610d7981610ad9565b90610d876040519283610ab7565b81523d5f602083013e5b80519081610dac5782633250574960e11b5f5260045260245ffd5b602001fd5b6060610d91565b6001600160e01b03191663757a42ff60e11b01610dd957505f808080610d04565b633250574960e11b5f5260045260245ffd5b9091506020813d602011610e28575b81610e0760209383610ab7565b8101031261016757516001600160e01b03198116810361016757905f610d63565b3d9150610dfa565b610e3981610ef5565b505f52600660205260405f2060405190815f825492610e5784610b2b565b8084529360018116908115610ed35750600114610e8f575b50610e7c92500382610ab7565b5f604051610e8b602082610ab7565b5290565b90505f9291925260205f20905f915b818310610eb7575050906020610e7c928201015f610e6f565b6020919350806001915483858801015201910190918392610e9e565b905060209250610e7c94915060ff191682840152151560051b8201015f610e6f565b5f818152600260205260409020546001600160a01b0316908115610f17575090565b637e27328960e01b5f5260045260245ffd5b6007546001600160a01b03163303610f3d57565b63118cdaa760e01b5f523360045260245ffdfea26469706673582212200f6c73849408420a58a833da20622f358f57b010f0c513193371960e8ce7694264736f6c634300081e0033","linkReferences":{}},"methodIdentifiers":{"approve(address,uint256)":"095ea7b3","balanceOf(address)":"70a08231","currentTokenId()":"009a9b7b","getApproved(uint256)":"081812fc","isApprovedForAll(address,address)":"e985e9c5","mint(address,string)":"d0def521","name()":"06fdde03","owner()":"8da5cb5b","ownerOf(uint256)":"6352211e","renounceOwnership()":"715018a6","safeTransferFrom(address,address,uint256)":"42842e0e","safeTransferFrom(address,address,uint256,bytes)":"b88d4fde","setApprovalForAll(address,bool)":"a22cb465","supportsInterface(bytes4)":"01ffc9a7","symbol()":"95d89b41","tokenURI(uint256)":"c87b56dd","transferFrom(address,address,uint256)":"23b872dd","transferOwnership(address)":"f2fde38b"},"id":42}