{"abi":[{"type":"constructor","inputs":[{"name":"_nftContract","type":"address","internalType":"address"},{"name":"_paymentToken","type":"address","internalType":"address"}],"stateMutability":"nonpayable"},{"type":"function","name":"buyNFT","inputs":[{"name":"tokenId","type":"uint256","internalType":"uint256"}],"outputs":[],"stateMutability":"nonpayable"},{"type":"function","name":"list","inputs":[{"name":"tokenId","type":"uint256","internalType":"uint256"},{"name":"price","type":"uint256","internalType":"uint256"}],"outputs":[],"stateMutability":"nonpayable"},{"type":"function","name":"listings","inputs":[{"name":"","type":"uint256","internalType":"uint256"}],"outputs":[{"name":"price","type":"uint256","internalType":"uint256"},{"name":"seller","type":"address","internalType":"address"}],"stateMutability":"view"},{"type":"function","name":"nftContract","inputs":[],"outputs":[{"name":"","type":"address","internalType":"contract IERC721"}],"stateMutability":"view"},{"type":"function","name":"owner","inputs":[],"outputs":[{"name":"","type":"address","internalType":"address"}],"stateMutability":"view"},{"type":"function","name":"paymentToken","inputs":[],"outputs":[{"name":"","type":"address","internalType":"contract CloudToken"}],"stateMutability":"view"},{"type":"function","name":"renounceOwnership","inputs":[],"outputs":[],"stateMutability":"nonpayable"},{"type":"function","name":"transferOwnership","inputs":[{"name":"newOwner","type":"address","internalType":"address"}],"outputs":[],"stateMutability":"nonpayable"},{"type":"event","name":"Buy","inputs":[{"name":"owner","type":"address","indexed":true,"internalType":"address"},{"name":"spender","type":"address","indexed":true,"internalType":"address"},{"name":"value","type":"uint256","indexed":false,"internalType":"uint256"}],"anonymous":false},{"type":"event","name":"List","inputs":[{"name":"from","type":"address","indexed":true,"internalType":"address"},{"name":"to","type":"address","indexed":true,"internalType":"address"},{"name":"value","type":"uint256","indexed":false,"internalType":"uint256"}],"anonymous":false},{"type":"event","name":"OwnershipTransferred","inputs":[{"name":"previousOwner","type":"address","indexed":true,"internalType":"address"},{"name":"newOwner","type":"address","indexed":true,"internalType":"address"}],"anonymous":false},{"type":"error","name":"OwnableInvalidOwner","inputs":[{"name":"owner","type":"address","internalType":"address"}]},{"type":"error","name":"OwnableUnauthorizedAccount","inputs":[{"name":"account","type":"address","internalType":"address"}]}],"bytecode":{"object":"0x6080346100ee57601f61085238819003918201601f19168301916001600160401b038311848410176100f25780849260409485528339810103126100ee57610052602061004b83610106565b9201610106565b33156100db575f8054336001600160a01b0319821681178355604051949290916001600160a01b0316907f8be0079c531659141344cd1fd0a4f28419497f9722a3daafe3b4186f6b6457e09080a3600180546001600160a01b039283166001600160a01b03199182161790915560028054939092169216919091179055610737908161011b8239f35b631e4fbdf760e01b5f525f60045260245ffd5b5f80fd5b634e487b7160e01b5f52604160045260245ffd5b51906001600160a01b03821682036100ee5756fe6080806040526004361015610012575f80fd5b5f905f3560e01c9081633013ce29146106665750806350fd73671461045d57806351ed8288146101ea578063715018a6146101905780638da5cb5b14610169578063d56d229d14610140578063de74e57b146101045763f2fde38b14610076575f80fd5b34610101576020366003190112610101576004356001600160a01b038116908190036100ff576100a46106db565b80156100eb5781546001600160a01b03198116821783556001600160a01b03167f8be0079c531659141344cd1fd0a4f28419497f9722a3daafe3b4186f6b6457e08380a380f35b631e4fbdf760e01b82526004829052602482fd5b505b80fd5b5034610101576020366003190112610101576040809160043581526003602052208054906001808060a01b039101541682519182526020820152f35b50346101015780600319360112610101576001546040516001600160a01b039091168152602090f35b5034610101578060031936011261010157546040516001600160a01b039091168152602090f35b50346101015780600319360112610101576101a96106db565b80546001600160a01b03198116825581906001600160a01b03167f8be0079c531659141344cd1fd0a4f28419497f9722a3daafe3b4186f6b6457e08280a380f35b5034610101576020366003190112610101576004358082526003602052604082209060405161021881610689565b82548082526001909301546001600160a01b0316602082019081529215610418575191516001600160a01b0316903382146103d3576002546040516323b872dd60e01b81523360048201526001600160a01b038481166024830152604482018690529091602091839160649183918a91165af19081156103c8578591610389575b50156103535760015484906001600160a01b0316803b156100ff576040516323b872dd60e01b8152306004820152336024820152604481018490529082908290606490829084905af180156103485761032f575b505260036020528260016040822082815501556040519182527fd0c183be209f70036b50de16805d88249019e1288d7b77ef877710999c0d08e660203393a380f35b81610339916106b9565b61034457835f6102ed565b8380fd5b6040513d84823e3d90fd5b60405162461bcd60e51b815260206004820152600e60248201526d14185e5b595b9d0819985a5b195960921b6044820152606490fd5b90506020813d6020116103c0575b816103a4602093836106b9565b810103126103bc575180151581036103bc575f610299565b8480fd5b3d9150610397565b6040513d87823e3d90fd5b60405162461bcd60e51b815260206004820152601760248201527f43616e6e6f742062757920796f7572206f776e204e46540000000000000000006044820152606490fd5b60405162461bcd60e51b815260206004820152601860248201527f54686973204e4654206973206e6f7420666f722073616c6500000000000000006044820152606490fd5b503461059f57604036600319011261059f576004356024359060018060a01b03600154166040516331a9108f60e11b8152826004820152602081602481855afa908115610594575f91610624575b50336001600160a01b03909116036105e85782156105a357803b1561059f576040516323b872dd60e01b815233600482015230602482015260448101839052905f908290606490829084905af180156105945761057f575b50600160405161051281610689565b8381526020810192338452855260036020526040852090518155019060018060a01b039051166bffffffffffffffffffffffff60a01b82541617905560405190815230907f1a937ade1c0102f7e50428effd2f954e0a844d7a9064826f1683b06aa98d30e560203392a380f35b61058c9193505f906106b9565b5f915f610503565b6040513d5f823e3d90fd5b5f80fd5b60405162461bcd60e51b815260206004820152601f60248201527f5072696365206d7573742062652067726561746572207468616e207a65726f006044820152606490fd5b60405162461bcd60e51b8152602060048201526014602482015273165bdd481b5d5cdd081bdddb881d1a194813919560621b6044820152606490fd5b90506020813d60201161065e575b8161063f602093836106b9565b8101031261059f57516001600160a01b038116810361059f575f6104ab565b3d9150610632565b3461059f575f36600319011261059f576002546001600160a01b03168152602090f35b6040810190811067ffffffffffffffff8211176106a557604052565b634e487b7160e01b5f52604160045260245ffd5b90601f8019910116810190811067ffffffffffffffff8211176106a557604052565b5f546001600160a01b031633036106ee57565b63118cdaa760e01b5f523360045260245ffdfea264697066735822122026285205f1733f46d6ffe74a3d0bda51faac02c3a50c157a204b389d3e0cb41f64736f6c634300081e0033","linkReferences":{}},"methodIdentifiers":{"buyNFT(uint256)":"51ed8288","list(uint256,uint256)":"50fd7367","listings(uint256)":"de74e57b","nftContract()":"d56d229d","owner()":"8da5cb5b","paymentToken()":"3013ce29","renounceOwnership()":"715018a6","transferOwnership(address)":"f2fde38b"},"id":51}